:020000040800F2
:1000000000000220550300085D0300086503000896
:10001000ED030008F5030008490400080000000093
:100020000000000000000000000000009D04000827
:10003000A504000800000000AD0400082D3E0008E3
:10004000CD040008CD040008CD040008CD0400084C
:10005000CD040008CD040008CD040008CD0400083C
:10006000CD040008CD040008CD040008CD0400082C
:10007000CD040008CD040008CD040008CD0400081C
:10008000CD040008CD040008CD040008CD0400080C
:10009000CD040008CD040008CD040008CD040008FC
:1000A000CD040008CD040008CD040008CD040008EC
:1000B000CD040008CD040008CD040008CD040008DC
:1000C000CD040008CD040008CD040008CD040008CC
:1000D000CD040008CD040008CD040008CD040008BC
:1000E000CD040008CD040008CD040008CD040008AC
:1000F000CD040008CD040008CD040008CD0400089C
:10010000CD040008CD040008CD040008CD0400088B
:10011000CD040008CD040008CD040008CD0400087B
:10012000CD040008CD040008CD040008CD0400086B
:10013000CD040008CD040008CD040008CD0400085B
:10014000CD040008CD040008CD040008CD0400084B
:10015000CD040008CD040008CD040008CD0400083B
:10016000CD040008CD040008CD040008CD0400082B
:10017000CD040008CD040008CD04000800000000F4
:10018000CD040008CD04000880B596B000AF03F0A0
:10019000DDFA5F4B5F4A1A605F4B5E4A1A605F4B45
:1001A0007B6524E07B6D1A1D7A651B683B647B6D63
:1001B0001A1D7A651B68FB637B6D1A1D7A651B68C7
:1001C000BB633B6C7B63FB6B3B63BB6BFB623B6B5F
:1001D000BB6207E07A6B131D7B63BB6A191DB962B2
:1001E00012681A60FA6ABB6A9A42F3D800BF7B6D44
:1001F0004B4A9342D6D3464B1B684A4A934204D19A
:10020000454B1B68484A934200D0FEE7474B414AA2
:100210001A60474B3F4A1A60464B3B651AE03B6DFC
:100220001A1D3A651B68BB643B6D1A1D3A651B6855
:100230007B64BB6C7B627B6C3B627B6AFB6104E032
:10024000FB691A1DFA6100221A603A6AFB699A4238
:10025000F6D800BF3B6D384A9342E0D3334B1B685E
:10026000002B03D1324B1B68002B00D0FEE703F0BC
:10027000DDFC3A1D07F108031146184602F056FB53
:100280002E4A2F4BD31A9B103B610023FB6007E0E3
:100290002B4AFB6852F823309847FB680133FB6018
:1002A0003A69FB689A42F3DC264A274BD31A9B1023
:1002B0003B610023FB6007E0234AFB6852F82330D0
:1002C0009847FB680133FB603A69FB689A42F3DCAC
:1002D00000BFBB687A681146184603F05DFDF864FC
:1002E0001A4A1B4BD31A9B10BB61BB697B6108E0A8
:1002F0007B69013B164A52F8233098477B69013BE2
:100300007B617B69002BF3DC00BFF86C02F0BCFB67
:1003100000000020BABADECA6C000020D404000835
:10032000EC0400087856341232547698700000209D
:1003300044020020EC040008FC040008FC0400084F
:10034000FC040008FC040008FC040008FC0400088D
:10035000FC04000880B500AFFFF716FF80B400AFC3
:1003600000BEFEE71EF0040F0CBFEFF30880EFF3B2
:1003700009807146524A104700BF80B588B002AF6D
:1003800078603960174B5B6B7B61164B9B6B3B61F5
:10039000144B9B6AFB60134B1B6B03F00203002B97
:1003A00010D0104BDB6A002B0CDA4BF6AB6178688F
:1003B00003F08EFA0346002B04D00A4B4FF00042A4
:1003C000DA620CE0084803F0DFF83B6800933B6911
:1003D0007A69F968786803F0E5F900BEFEE7183736
:1003E000BD4680BD00ED00E0E04F000880B400AFE6
:1003F00000BEFEE71EF0040F0CBFEFF30880EFF322
:10040000098071462F4A104700BF80B588B002AFFF
:10041000786039600A4B5B6B7B61094B9B6B3B617E
:10042000074B9B6AFB60074803F0AEF83B680093FC
:100430003B697A69F968786803F0B4F900BEFEE7B1
:1004400000ED00E0F04F00081EF0040F0CBFEFF3CA
:100450000880EFF3098071461B4A104700BF80B542
:1004600088B002AF786039600A4B5B6B7B61094BE7
:100470009B6B3B61074B9B6AFB60074803F084F86A
:100480003B6800933B697A69F968786803F08AF9F8
:1004900000BEFEE700ED00E0FC4F000880B400AFB6
:1004A00000BEFEE780B400AF00BEFEE780B400AF40
:1004B00000BEFEE780B400AF00BFBD4680BC704701
:1004C0007B0300080B0400085F04000880B400AF41
:0404D00000BEFEE785
:1004D400B85100080000002070000020B851000846
:1004E40000000010000000107000002048020020EE
:0804F4000000001000000010E0
:1005000080B500AF0E4B1B680D4A43F400731360B7
:100510000B4B1B680A4A43F480631360084B1B684B
:10052000074A43F480731360032000F013FB0F208D
:1005300000F040F803F0EAFC0023184680BD00BF3D
:10054000003C024080B500AF134B4FF0FF321A62FF
:10055000114B00221A62104B4FF0FF325A620E4BC1
:1005600000225A620C4B4FF0FF321A610A4B0022F4
:100570001A61094B4FF0FF325A61074B00225A6152
:10058000054B4FF0FF329A61034B00229A6103F052
:10059000C3FC0023184680BD0038024080B400AF81
:1005A00000BFBD4680BC704780B400AF00BFBD46F1
:1005B00080BC704780B582B000AF7860094B1B6883
:1005C000094AA2FB03239B09184600F045FB0022C1
:1005D00079684FF0FF3000F0DDFA00231846083745
:1005E000BD4680BD04000020D34D621080B400AF32
:1005F000044B1B680133034A136000BFBD4680BC37
:10060000704700BF3002002080B400AF024B1B686F
:100610001846BD4680BC70473002002080B584B0CB
:1006200000AF78600023FB60FFF7EEFFF86000BFCB
:10063000FFF7EAFF0246FB68D21A7B689A42F7D3BB
:1006400000BF00BF1037BD4680BD80B400AF054B72
:100650001B68044A23F00203136000BFBD4680BC40
:10066000704700BF10E000E080B400AF044B1B688F
:10067000034A43F00203136000BFBD4680BC7047CD
:1006800010E000E080B400AF024B1846BD4680BCCD
:10069000704700BF0000050180B400AF034B1B682A
:1006A0001B0C1846BD4680BC704700BF002004E00C
:1006B00080B400AF034B1B68C3F30B031846BD4661
:1006C00080BC7047002004E080B400AF044B5B683E
:1006D000034A43F00103536000BFBD4680BC70472E
:1006E000002004E080B400AF044B5B68034A23F0B1
:1006F0000103536000BFBD4680BC7047002004E08A
:1007000080B400AF044B5B68034A43F002035360BC
:1007100000BFBD4680BC7047002004E080B400AF3D
:10072000044B5B68034A23F00203536000BFBD46DD
:1007300080BC7047002004E080B400AF044B5B68CD
:10074000034A43F00403536000BFBD4680BC7047BA
:10075000002004E080B400AF044B5B68034A23F040
:100760000403536000BFBD4680BC7047002004E016
:1007700080B483B000AF01237B607B6893FAA3F35E
:100780003B603B68B3FA83F31A46054B13449B0066
:100790001A460123136000BF0C37BD4680BC70476A
:1007A00000C1891080B483B000AF01237B607B68F7
:1007B00093FAA3F33B603B68B3FA83F31A46054B05
:1007C00013449B001A460023136000BF0C37BD463C
:1007D00080BC704700C1891080B485B000AF7860DC
:1007E0007B6803F00703FB600C4BDB68BB60BA68F7
:1007F0004FF6FF031340BB60FB681A02BB6813434C
:1008000043F0BF6343F40033BB60044ABB68D3606A
:1008100000BF1437BD4680BC704700BF00ED00E04C
:1008200080B400AF044BDB681B0A03F007031846D3
:10083000BD4680BC704700BF00ED00E080B483B0CF
:1008400000AF0346FB71FB7903F01F02064997F9DD
:1008500007305B09012000FA02F241F8232000BFB3
:100860000C37BD4680BC704700E100E080B483B027
:1008700000AF0346FB71FB7903F01F02074997F9AC
:1008800007305B09012000FA02F2203341F82320EF
:1008900000BF0C37BD4680BC704700BF00E100E0E0
:1008A00080B483B000AF0346FB71094A97F9073063
:1008B0005B09403352F82320FB7903F01F0322FA2F
:1008C00003F303F0010318460C37BD4680BC7047A4
:1008D00000E100E080B483B000AF0346FB71FB7918
:1008E00003F01F02074997F907305B09012000FA5E
:1008F00002F2403341F8232000BF0C37BD4680BCD4
:10090000704700BF00E100E080B483B000AF034651
:10091000FB71FB7903F01F02074997F907305B0968
:10092000012000FA02F2603341F8232000BF0C37A7
:10093000BD4680BC704700BF00E100E080B483B0DA
:1009400000AF0346FB71094A97F907305B09803312
:1009500052F82320FB7903F01F0322FA03F303F07C
:10096000010318460C37BD4680BC704700E100E02B
:1009700080B483B000AF03463960FB7197F907304C
:10098000002B0BDA3B68DAB20C49FB7903F00F035A
:10099000043B1201D2B20B441A7609E03B68DAB28A
:1009A000074997F907301201D2B20B4483F80023AC
:1009B00000BF0C37BD4680BC704700BF00ED00E0B3
:1009C00000E100E080B483B000AF0346FB7197F90B
:1009D0000730002B0ADA0C4AFB7903F00F03043BC3
:1009E00013441B7EDBB21B09DBB208E0074A97F910
:1009F0000730134493F80033DBB21B09DBB218460F
:100A00000C37BD4680BC704700ED00E000E100E01F
:100A100080B489B000AFF860B9607A60FB6803F019
:100A20000703FB61FB69C3F10703042B28BF042301
:100A3000BB61FB690433062B02D9FB69033B00E071
:100A400000237B614FF0FF32BB6902FA03F3DA4304
:100A5000BB681A407B699A404FF0FF317B6901FA0D
:100A600003F3D9437B680B40134318462437BD4634
:100A700080BC704780B489B000AFF860B9607A601C
:100A80003B60BB6803F00703FB61FB69C3F107032D
:100A9000042B28BF0423BB61FB690433062B02D956
:100AA000FB69033B00E000237B61FA687B69DA4065
:100AB0004FF0FF31BB6901FA03F3DB431A407B6857
:100AC0001A604FF0FF327B6902FA03F3DA43FB68E6
:100AD0001A403B681A6000BF2437BD4680BC70478F
:100AE00080B400AFBFF34F8F00BF074BDB6803F448
:100AF000E0620549054B1343CB60BFF34F8F00BF46
:100B000000BF00BFFCE700BF00ED00E00400FA05F5
:100B100080B582B000AF78607B68013BB3F1807F25
:100B200001D301230FE00A4A7B68013B53600F2188
:100B30004FF0FF30FFF71CFF054B00229A60044B7B
:100B400007221A60002318460837BD4680BD00BF43
:100B500010E000E080B582B000AF78607B68072BC2
:100B60000FD07B68062B0CD07B68052B09D07B68E7
:100B7000042B06D07B68032B03D0A421044802F089
:100B8000F5FC7868FFF728FE00BF0837BD4680BD3A
:100B90005C4D000880B586B000AF0346B9607A604E
:100BA000FB7300237B617B680F2B03D9BC210E48AC
:100BB00002F0DCFCBB680F2B03D9BD210A4802F010
:100BC000D5FCFFF72DFE78617A68B9687869FFF780
:100BD0001FFF024697F90F3011461846FFF7C8FE6F
:100BE00000BF1837BD4680BD5C4D000880B582B09F
:100BF00000AF0346FB7197F90730002B03DAD021D1
:100C0000054802F0B3FC97F907301846FFF716FEC7
:100C100000BF0837BD4680BD5C4D000880B582B07E
:100C200000AF0346FB7197F90730002B03DAE02190
:100C3000054802F09BFC97F907301846FFF716FEAF
:100C400000BF0837BD4680BD5C4D000880B500AFD1
:100C5000FFF746FF00BF80BD80B582B000AF78606F
:100C60007868FFF755FF034618460837BD4680BD34
:100C700080B582B000AF78607B685B78002B20D0B5
:100C80007B685B78012B1CD07B685B78022B18D0CB
:100C90007B685B78032B14D07B685B78042B10D0C7
:100CA0007B685B78052B0CD07B685B78062B08D0C3
:100CB0007B685B78072B04D040F21911964802F04C
:100CC00055FC7B681B78012B08D07B681B78002BB8
:100CD00004D04FF48D71904802F048FC7B685A783C
:100CE0008E4B9A607B681B78002B00F00A817B6832
:100CF0001B7B002B08D07B681B7B012B04D04FF49F
:100D00009171854802F032FC7B68DB7A002B18D0A9
:100D10007B68DB7A012B14D07B68DB7A022B10D046
:100D20007B68DB7A032B0CD07B68DB7A052B08D041
:100D30007B68DB7A062B04D040F22311764802F060
:100D400015FC7B689B7A002B0CD07B689B7A012B6F
:100D500008D07B689B7A022B04D04FF492716E48C6
:100D600002F004FC7B685B7B012B08D07B685B7B1B
:100D7000002B04D040F22511674802F0F7FB7B6896
:100D80009B7B012B08D07B689B7B002B04D04FF40E
:100D90009371614802F0EAFB7B68DB7B012B08D092
:100DA0007B68DB7B002B04D040F227115A4802F00D
:100DB000DDFB7B685B7AFF2B04D14FF494715648BE
:100DC00002F0D4FB7B681B7A042B70D07B681B7A03
:100DD000052B6CD07B681B7A062B68D07B681B7A4E
:100DE000072B64D07B681B7A082B60D07B681B7A4A
:100DF000092B5CD07B681B7A0A2B58D07B681B7A46
:100E00000B2B54D07B681B7A0C2B50D07B681B7A41
:100E10000D2B4CD07B681B7A0E2B48D07B681B7A3D
:100E20000F2B44D07B681B7A102B40D07B681B7A39
:100E3000112B3CD07B681B7A122B38D07B681B7A35
:100E4000132B34D07B681B7A142B30D07B681B7A31
:100E5000152B2CD07B681B7A162B28D07B681B7A2D
:100E6000172B24D07B681B7A182B20D07B681B7A29
:100E7000192B1CD07B681B7A1A2B18D07B681B7A25
:100E80001B2B14D07B681B7A1C2B10D07B681B7A21
:100E90001D2B0CD07B681B7A1E2B08D07B681B7A1D
:100EA0001F2B04D040F229111B4802F05FFB1B4AA4
:100EB0007B685B68D3607B681B7B1A077B68DB7A87
:100EC0001B061A437B689B7ADB041A437B685B7BB7
:100ED0009B041A437B689B7B5B041A437B68DB7B28
:100EE0001B041A437B685B7A1B021A437B681B7ADC
:100EF0005B0013437A6812781146084A0B4313616A
:100F000005E0064B0022DA60044B00221A6100BFA4
:100F10000837BD4680BD00BF5C4D000890ED00E085
:100F200080B500AFFFF77CFC0346184680BD80B556
:100F300084B000AFB9607A603B600346FB73BB6866
:100F4000072B10D0BB68062B0DD0BB68052B0AD031
:100F5000BB68042B07D0BB68032B04D04FF4B071DF
:100F6000084802F003FB97F90F301846FFF72AFDF7
:100F70003B687A68B968FFF77DFD00BF1037BD4652
:100F800080BD00BF5C4D000880B582B000AF034655
:100F9000FB7197F90730002B04DA40F26F11064815
:100FA00002F0E4FA97F907301846FFF793FC00BF08
:100FB0000837BD4680BD00BF5C4D000880B582B0DB
:100FC00000AF0346FB7197F90730002B04DA40F2BB
:100FD0008111064802F0CAFA97F907301846FFF760
:100FE0005FFC034618460837BD4680BD5C4D0008CF
:100FF00080B582B000AF0346FB7197F90730002B34
:1010000004DA40F29111064802F0B0FA97F907307D
:101010001846FFF779FC00BF0837BD4680BD00BF0A
:101020005C4D000880B582B000AF0346FB7197F9B4
:101030000730002B04DA4FF4D171064802F096FA1B
:1010400097F907301846FFF779FC0346184608372A
:10105000BD4680BD5C4D000880B582B000AF7860B1
:101060007B68042B07D07B68002B04D040F2B311BF
:101070000B4802F07BFA7B68042B06D1094B1B68F6
:10108000084A43F00403136005E0064B1B68054A59
:1010900023F00403136000BF0837BD4680BD00BFC6
:1010A0005C4D000810E000E080B500AF00F002F8F1
:1010B00000BF80BD80B400AF00BFBD4680BC70479C
:1010C00080B588B000AF7860396000237B61002371
:1010D0003B610023BB617B683E4A934223D07B681F
:1010E0003D4A93421FD07B683C4A93421BD07B68A9
:1010F0003B4A934217D07B683A4A934213D07B68AD
:10110000394A93420FD07B68384A93420BD07B68B0
:10111000374A934207D07B68364A934203D0C521B1
:10112000354802F023FA3B681B689BB2002B03D1C1
:10113000C621314802F01AFA3B685B68002B35D0B3
:101140003B685B68012B31D03B685B68112B2DD06D
:101150003B685B68022B29D03B685B68122B25D06B
:101160003B685B68254A934220D03B685B68244A11
:1011700093421BD03B685B68224A934216D03B687F
:101180005B68214A934211D03B685B681F4A9342D7
:101190000CD03B685B681E4A934207D03B685B6893
:1011A000032B03D0C721144802F0E0F93B689B6889
:1011B000002B0BD03B689B68012B07D03B689B68DA
:1011C000022B03D0C8210C4802F0D0F90023FB61A8
:1011D00057E200BF00000240000402400008024045
:1011E000000C0240001002400014024000180240AF
:1011F000001C024000200240904D00080000111029
:101200000000211000003110000012100000221018
:10121000000032100122FB6902FA03F37B613B6894
:101220001B687A6913403B613A697B699A4240F0D6
:1012300025823B685B68022B04D03B685B68122BFD
:1012400040F0BC803B681B69002B00F093803B683A
:101250001B69092B00F08E803B681B69002B00F096
:1012600089803B681B69002B00F084803B681B6908
:10127000002B7FD03B681B69002B7BD03B681B6930
:10128000012B77D03B681B69012B73D03B681B692E
:10129000022B6FD03B681B69022B6BD03B681B692C
:1012A000022B67D03B681B69032B63D03B681B692B
:1012B000042B5FD03B681B69042B5BD03B681B6928
:1012C000042B57D03B681B69052B53D03B681B6927
:1012D000052B4FD03B681B69092B4BD03B681B6922
:1012E000062B47D03B681B69092B43D03B681B6921
:1012F000072B3FD03B681B69072B3BD03B681B6922
:10130000072B37D03B681B69082B33D03B681B6920
:10131000082B2FD03B681B69082B2BD03B681B691F
:10132000092B27D03B681B69092B23D03B681B691D
:101330000A2B1FD03B681B690A2B1BD03B681B691B
:101340000B2B17D03B681B690C2B13D03B681B6918
:101350000C2B0FD03B681B690D2B0BD03B681B6916
:101360000C2B07D03B681B690F2B03D0D921854874
:1013700002F0FCF8FB69DA087B68083253F8223087
:10138000BB61FB6903F007039B000F2202FA03F322
:10139000DB43BA691340BB613B681A69FB6903F020
:1013A00007039B0002FA03F3BA691343BB61FB69AD
:1013B000DA087B680832B96943F822107B681B6839
:1013C000BB61FB695B00032202FA03F3DB43BA69EA
:1013D0001340BB613B685B6803F00302FB695B0081
:1013E00002FA03F3BA691343BB617B68BA691A60F6
:1013F0003B685B68012B0BD03B685B68022B07D016
:101400003B685B68112B03D03B685B68122B44D1AF
:101410003B68DB68002B0FD03B68DB68012B0BD0EF
:101420003B68DB68022B07D03B68DB68032B03D0EB
:10143000EC21544802F09AF87B689B68BB61FB6919
:101440005B00032202FA03F3DB43BA691340BB617A
:101450003B68DA68FB695B0002FA03F3BA6913437D
:10146000BB617B68BA699A607B685B68BB6101227B
:10147000FB6902FA03F3DB43BA691340BB613B68C3
:101480005B681B0903F00102FB6902FA03F3BA6906
:101490001343BB617B68BA695A607B68DB68BB61D8
:1014A000FB695B00032202FA03F3DB43BA691340D2
:1014B000BB613B689A68FB695B0002FA03F3BA6997
:1014C0001343BB617B68BA69DA603B685B6803F011
:1014D0008053002B00F0D2800023FB602A4B5B6C12
:1014E000294A43F480435364274B5B6C03F48043E5
:1014F000FB60FB68254AFB699B08023352F82330E6
:10150000BB61FB6903F003039B000F2202FA03F3A4
:10151000DB43BA691340BB617B681D4A934249D0E3
:101520007B681C4A93422BD07B681B4A934225D090
:101530007B681A4A93421FD07B68194A934219D09C
:101540007B68184A934213D07B68174A93420DD0A8
:101550007B68164A934207D07B68154A934201D1B3
:10156000082328E0092326E0072324E0062322E0BD
:10157000052320E004231EE003231CE002231AE0DD
:10158000012318E0904D0008003802400038014067
:10159000000002400004024000080240000C02402B
:1015A000001002400014024000180240001C0240DB
:1015B000002002400023FA6902F0030292009340E7
:1015C000BA691343BB613349FB699B080233BA69AB
:1015D00041F82320304B1B68BB613B69DB43BA6990
:1015E0001340BB613B685B6803F48033002B03D07E
:1015F000BA693B691343BB61274ABB691360264B39
:101600005B68BB613B69DB43BA691340BB613B6804
:101610005B6803F40033002B03D0BA693B691343C2
:10162000BB611D4ABB6953601B4B9B68BB613B6937
:10163000DB43BA691340BB613B685B6803F480130A
:10164000002B03D0BA693B691343BB61124ABB69E3
:101650009360114BDB68BB613B69DB43BA691340A4
:10166000BB613B685B6803F40013002B03D0BA69CD
:101670003B691343BB61084ABB69D360FB69013313
:10168000FB61FB690F2B7FF6C5AD00BF00BF2037A4
:10169000BD4680BD00380140003C014080B586B0A9
:1016A00000AF7860396000233B610023FB600023BA
:1016B000BB607B68834A934224D07B68824A934212
:1016C00020D07B68814A93421CD07B68804A934239
:1016D00018D07B687F4A934214D07B687E4A93423D
:1016E00010D07B687D4A93420CD07B687C4A934241
:1016F00008D07B687B4A934204D04FF4A1717A48AA
:1017000001F034FF00237B61D3E001227B6902FA00
:1017100003F33B613A683B691340FB60FA683B693D
:101720009A4240F0C3807B681A687B695B000321A2
:1017300001FA03F3DB431A407B681A607B69DA081D
:101740007B68083253F822107B6903F007039B0083
:101750000F2202FA03F3DB437A69D20819407B684F
:10176000083243F822107B689A687B695B0003218A
:1017700001FA03F3DB431A407B689A607B685A687E
:1017800001217B6901FA03F3DB431A407B685A604D
:101790007B68DA687B695B00032101FA03F3DB43B2
:1017A0001A407B68DA60514A7B699B08023352F821
:1017B0002330BB607B6903F003039B000F2202FA16
:1017C00003F3BA681340BB607B683E4A934231D052
:1017D0007B683D4A93422BD07B683C4A934225D09C
:1017E0007B683B4A93421FD07B683A4A934219D0A8
:1017F0007B68394A934213D07B68384A93420DD0B4
:101800007B68374A934207D07B68364A934201D1BE
:10181000082310E009230EE007230CE006230AE06A
:10182000052308E0042306E0032304E0022302E08A
:10183000012300E000237A6902F003029200934042
:10184000BA689A4232D17B6903F003039B000F22EE
:1018500002FA03F3BB60254A7B699B08023352F806
:101860002310BB68DA4321487B699B080A40023396
:1018700040F823201E4B1A68FB68DB431C491340C9
:101880000B601B4B5A68FB68DB43194913404B60E4
:10189000174B9A68FB68DB43154913408B60144B68
:1018A000DA68FB68DB4312491340CB607B69013384
:1018B0007B617B690F2B7FF628AF00BF00BF183715
:1018C000BD4680BD00000240000402400008024006
:1018D000000C0240001002400014024000180240B8
:1018E000001C024000200240904D000800380140DA
:1018F000003C014080B584B000AF78600B467B802F
:101900007B88002B04D14FF4C871094801F02EFEEA
:101910007B681A697B881340002B02D00123FB737C
:1019200001E00023FB73FB7B18461037BD4680BDEA
:10193000904D000880B582B000AF78600B467B8088
:1019400013467B707B88002B04D140F2B1110E4806
:1019500001F00CFE7B78002B07D07B78012B04D0A4
:101960004FF4D971084801F001FE7B78002B03D0B9
:101970007A887B689A6103E07B881A047B689A61A5
:1019800000BF0837BD4680BD904D000880B582B0CD
:1019900000AF78600B467B807B88002B04D14FF42E
:1019A000E471064801F0E2FD7B685A697B885A4081
:1019B0007B685A6100BF0837BD4680BD904D000866
:1019C00080B584B000AF78600B467B804FF48033E5
:1019D000FB607B88002B04D140F2DD110F4801F041
:1019E000C5FD7A88FB681343FB60FA687B68DA619F
:1019F0007A887B68DA61FA687B68DA617B68DB6920
:101A0000FB607B68DB6903F48033002B01D000238B
:101A100000E0012318461037BD4680BD904D0008F8
:101A200080B582B000AF0346FB80084B5A69FB8843
:101A30001340002B06D0054AFB885361FB881846EB
:101A400000F006F800BF0837BD4680BD003C0140ED
:101A500080B483B000AF0346FB8000BF0C37BD46A7
:101A600080BC704780B400AF00BFBD4680BC7047EB
:101A700080B58EB000AF786000237B637B681B6805
:101A80000F2B03D9F5219E4801F070FD7B681B6880
:101A900003F00103002B60D07B685B68002B0BD048
:101AA0007B685B68012B07D07B685B68052B03D0E4
:101AB000FA21934801F05AFD924B9B6803F00C0306
:101AC000042B0CD08F4B9B6803F00C03082B12D116
:101AD0008C4B5B6803F48003B3F5800F0BD1894B0B
:101AE0001B6803F40033002B36D07B685B68002B47
:101AF00032D1012376E27B685A68834BD2B21A70E6
:101B00007B685B68002B13D0FEF77EFD786308E0EE
:101B1000FEF77AFD02467B6BD31A642B01D90323AF
:101B200060E2784B1B6803F40033002BF0D014E024
:101B3000FEF76AFD786308E0FEF766FD02467B6B00
:101B4000D31A642B01D903234CE26E4B1B6803F4B8
:101B50000033002BF0D100E000BF7B681B6803F06E
:101B60000203002B00F08E807B68DB68002B08D01E
:101B70007B68DB68012B04D04FF49671604801F05C
:101B8000F5FC7B681B691F2B04D940F22D115C48C2
:101B900001F0ECFC5B4B9B6803F00C03002B0BD0BB
:101BA000584B9B6803F00C03082B26D1554B5B6800
:101BB00003F48003002B20D1524B1B6803F0020377
:101BC000002B05D07B68DB68012B01D0012309E2E3
:101BD0004C4B1B6823F0F8027B681969F8233B63C0
:101BE0003B6B93FAA3F3FB62FB6AB3FA83F301FA4C
:101BF00003F3444913430B6044E07B68DB68002B2C
:101C00002AD0424B01221A60FEF7FEFC786308E0FE
:101C1000FEF7FAFC02467B6BD31A022B01D9032391
:101C2000E0E1384B1B6803F00203002BF0D0354B8A
:101C30001B6823F0F8027B681969F823BB62BB6A52
:101C400093FAA3F37B627B6AB3FA83F301FA03F39B
:101C50002C4913430B6015E02C4B00221A60FEF751
:101C6000D3FC786308E0FEF7CFFC02467B6BD31A07
:101C7000022B01D90323B5E1224B1B6803F00203B9
:101C8000002BF0D17B681B6803F00803002B47D0C2
:101C90007B685B69002B08D07B685B69012B04D0F3
:101CA00040F26D11164801F061FC7B685B69002B06
:101CB00016D0174B01221A60FEF7A6FC786308E0E5
:101CC000FEF7A2FC02467B6BD31A022B01D9032339
:101CD00088E10C4B5B6F03F00203002BF0D01FE098
:101CE0000B4B00221A60FEF78FFC786312E0FEF7C0
:101CF0008BFC02467B6BD31A022B0BD9032371E1B9
:101D0000D04D00080038024002380240000047422F
:101D1000800E4742A94B5B6F03F00203002BE6D114
:101D20007B681B6803F00403002B6BD07B689B6807
:101D3000002B0CD07B689B68012B08D07B689B68CC
:101D4000052B04D040F297119D4801F00FFC0023B1
:101D5000BB609A4B1B6C994A43F080531364974BBA
:101D60001B6C03F08053BB60BB68964B1B68954AA5
:101D700043F480731360FEF747FC786308E0FEF7D6
:101D800043FC02467B6BD31A022B01D9032329E1C2
:101D90008C4B1B6803F48073002BF0D07B689A682F
:101DA000894BD2B21A707B689B68002B15D0FEF766
:101DB0002BFC78630AE0FEF727FC02467B6BD31A04
:101DC00041F28832934201D903230BE17B4B1B6F15
:101DD00003F00203002BEED014E0FEF715FC78634D
:101DE0000AE0FEF711FC02467B6BD31A41F28832FF
:101DF000934201D90323F5E0704B1B6F03F00203FC
:101E0000002BEED17B689B69002B0CD07B689B6913
:101E1000012B08D07B689B69022B04D04FF4E6713C
:101E2000674801F0A3FB7B689B69002B00F0D98019
:101E3000624B9B6803F00C03082B00F0D0807B689A
:101E40009B69022B40F0AA807B68DB69002B09D0DC
:101E50007B68DB69B3F5800F04D040F2D511584898
:101E600001F084FB7B681B6A3F2B04D94FF4EB71B4
:101E7000534801F07BFB7B685B6A312B04D97B689C
:101E80005B6AB3F5D87F04D940F2D7114C4801F012
:101E90006DFB7B689B6A022B10D07B689B6A042BCE
:101EA0000CD07B689B6A062B08D07B689B6A082B4A
:101EB00004D04FF4EC71424801F058FB7B68DB6AB8
:101EC000032B03D97B68DB6A0F2B04D940F2D911AD
:101ED0003B4801F04BFB3D4B00221A60FEF794FBA0
:101EE000786308E0FEF790FB02467B6BD31A022B67
:101EF00001D9032376E0314B1B6803F00073002BFC
:101F0000F0D17B68DA697B681B6A1A437B68596A7F
:101F100047F6C0733B613B6993FAA3F3FB60FB6830
:101F2000B3FA83F301FA03F31A437B689B6A5B08F5
:101F3000591E4FF44033BB61BB6993FAA3F37B6135
:101F40007B69B3FA83F301FA03F31A437B68D96A16
:101F50004FF070633B623B6A93FAA3F3FB61FB694A
:101F6000B3FA83F301FA03F3144913434B60174B9D
:101F700001221A60FEF748FB786308E0FEF744FB95
:101F800002467B6BD31A022B01D903232AE00B4BA9
:101F90001B6803F00073002BF0D022E00B4B0022F3
:101FA0001A60FEF731FB786312E0FEF72DFB024664
:101FB0007B6BD31A022B0BD9032313E000380240AA
:101FC000D04D000800700040703802406000474269
:101FD000064B1B6803F00073002BE6D101E00123E0
:101FE00000E0002318463837BD4680BD0038024067
:101FF00080B586B000AF7860396000237B617B6874
:102000001B68002B03D07B681B680F2B04D940F2A0
:102010003721914801F0AAFA3B68002B19D03B68A0
:10202000012B16D03B68022B13D03B68032B10D03A
:102030003B68042B0DD03B68052B0AD03B68062B70
:1020400007D03B68072B04D04FF40E71824801F093
:102050008DFA824B1B6803F00F033A689A420CD941
:102060007E4B3A68D2B21A707C4B1B6803F00F03A8
:102070003A689A4201D0012369E17B681B6803F04A
:102080000203002B31D07B689B68002B24D07B6837
:102090009B68802B20D07B689B68902B1CD07B6832
:1020A0009B68A02B18D07B689B68B02B14D07B68F2
:1020B0009B68C02B10D07B689B68D02B0CD07B68B2
:1020C0009B68E02B08D07B689B68F02B04D040F223
:1020D0004F21614801F04AFA614B9B6823F0F002FE
:1020E0007B689B685E4913438B607B681B6803F0C9
:1020F0000103002B00F09B807B685B68002B10D0F5
:102100007B685B68012B0CD07B685B68022B08D076
:102110007B685B68032B04D040F256214E4801F0E7
:1021200025FA7B685B68012B07D14D4B1B6803F4D4
:102130000033002B19D1012309E17B685B68022B76
:1021400003D07B685B68032B07D1454B1B6803F00A
:102150000073002B09D10123F9E0414B1B6803F008
:102160000203002B01D10123F1E03D4B9B6823F0DA
:1021700003027B685B683A4913438B60FEF744FABD
:1021800078617B685B68012B12D10AE0FEF73CFAAC
:1021900002467B69D31A41F28832934201D9032364
:1021A000D5E02F4B9B6803F00C03042BEED13EE0EF
:1021B0007B685B68022B12D10AE0FEF725FA024623
:1021C0007B69D31A41F28832934201D90323BEE0DE
:1021D000234B9B6803F00C03082BEED127E07B68B0
:1021E0005B68032B1DD10AE0FEF70EFA02467B69FD
:1021F000D31A41F28832934201D90323A7E0184B46
:102200009B6803F00C030C2BEED110E0FEF7FCF9F9
:1022100002467B69D31A41F28832934201D90323E3
:1022200095E00F4B9B6803F00C03002BEED10B4B9A
:102230001B6803F00F033A689A4213D2074B3A68BF
:10224000D2B21A70054B1B6803F00F033A689A422A
:1022500008D001237BE000BFD04D0008003C0240C5
:10226000003802407B681B6803F00403002B25D074
:102270007B68DB68002B18D07B68DB68B3F5805F78
:1022800013D07B68DB68B3F5A05F0ED07B68DB689A
:10229000B3F5C05F09D07B68DB68B3F5E05F04D0BD
:1022A0004FF42D712C4801F061F92C4B9B6823F4FD
:1022B000E0527B68DB68294913438B607B681B68AD
:1022C00003F00803002B26D07B681B69002B18D075
:1022D0007B681B69B3F5805F13D07B681B69B3F51E
:1022E000A05F0ED07B681B69B3F5C05F09D07B6827
:1022F0001B69B3F5E05F04D040F2BB21164801F042
:1023000035F9164B9B6823F460427B681B69DB0040
:10231000124913438B6000F0F3F801460F4B9B68A2
:1023200003F0F002F0233B613B6993FAA3F3FB60F7
:10233000FB68B3FA83F322FA03F3094AD35C21FA68
:1023400003F3084A13600F20FEF734F90023184600
:102350001837BD4680BD00BFD04D00080038024090
:10236000C04D00080400002080B58CB000AFF860BC
:10237000B9607A60FB68002B07D0FB68012B04D0A2
:102380004FF43F714E4801F0F1F87B68002B14D0F8
:102390007B68B3F1806F10D07B68B3F1A06F0CD075
:1023A0007B68B3F1C06F08D07B68B3F1E06F04D0F5
:1023B00040F2FD21424801F0D9F8FB68002B3DD1E5
:1023C000BB68002B10D0BB68B3F5001F0CD0BB68F6
:1023D000B3F5800F08D0BB68B3F5C00F04D040F24E
:1023E0000131374801F0C2F80023BB61354B1B6B4C
:1023F000344A43F001031363324B1B6B03F00103B8
:10240000BB61BB694FF48073FB6102233B62032312
:10241000BB6200237B620023FB6207F11C031946A9
:102420002948FEF74DFE274B9B6823F0EC62B96804
:102430007B680B43234913438B603DE0BB68002B53
:1024400010D0BB68B3F1804F0CD0BB68B3F1004F24
:1024500008D0BB68B3F1404F04D040F2193118489E
:1024600001F084F800237B61164B1B6B154A43F087
:1024700004031363134B1B6B03F004037B617B6941
:102480004FF40073FB6102233B620323BB62002312
:102490007B620023FB6207F11C0319460B48FEF721
:1024A0000FFE084B9B6823F078427B68D900BB681D
:1024B0000B43044913438B6000BF3037BD4680BDDA
:1024C000D04D0008003802400000024000080240E1
:1024D00080B400AF034B01221A6000BFBD4680BC30
:1024E000704700BF4C00474280B400AF034B00224E
:1024F0001A6000BFBD4680BC704700BF4C00474219
:1025000080B48BB000AF0023FB6100237B6200230B
:10251000BB6100233B62374B9B6803F00C03082B25
:102520000CD0082B5DD8002B02D0042B03D058E030
:10253000314B3B6258E0314B3B6255E02D4B5B68C1
:1025400003F03F03FB612B4B5B6803F48003002B1C
:1025500017D02A4AFB69B2FBF3F2264B596847F6BB
:10256000C0730B4047F6C0717961796991FAA1F1A6
:1025700039613969B1FA81F1CB4003FB02F37B6227
:1025800016E01D4AFB69B2FBF3F21A4B596847F695
:10259000C0730B4047F6C071F960F96891FAA1F178
:1025A000B960B968B1FA81F1CB4003FB02F37B62F9
:1025B000104B5B6803F440324FF440337B607B6820
:1025C00093FAA3F33B603B68B3FA83F322FA03F375
:1025D00001335B00BB617A6ABB69B2FBF3F33B6218
:1025E00002E0054B3B6200BF3B6A18462C37BD46F4
:1025F00080BC7047003802400024F40000127A00CA
:1026000080B400AF024B1B681846BD4680BC7047C3
:102610000400002080B582B000AFFFF7F1FF014653
:102620000B4B9B6803F4E0524FF4E0537B607B68F4
:1026300093FAA3F33B603B68B3FA83F322FA03F304
:10264000044AD35C21FA03F318460837BD4680BD1F
:1026500000380240C04D000880B582B000AFFFF7DF
:10266000CFFF01460B4B9B6803F460424FF460437D
:102670007B607B6893FAA3F33B603B68B3FA83F318
:1026800022FA03F3044AD35C21FA03F3184608370D
:10269000BD4680BD00380240C04D000880B48BB0FC
:1026A00000AF78607B680F221A60584B1B6803F4F8
:1026B0008023B3F5802F03D17B6805225A600DE09B
:1026C000524B1B6803F48033B3F5803F03D17B6822
:1026D00001225A6002E07B6800225A604B4B1B6863
:1026E00003F00103012B03D17B680122DA6002E0D1
:1026F0007B680022DA60454B1B6803F0F802F82380
:102700007B627B6A93FAA3F33B623B6AB3FA83F37F
:10271000DA407B681A613D4B1B6F03F00403042B06
:1027200003D17B6805229A600CE0384B1B6F03F0E5
:102730000103012B03D17B6801229A6002E07B68D0
:1027400000229A60314B5B6F03F00103012B03D130
:102750007B6801225A6102E07B6800225A612B4BA0
:102760001B6803F08073B3F1807F03D17B68022282
:102770009A6102E07B6801229A61244B5B6803F452
:1027800080027B68DA61214B5B6803F03F027B6863
:102790001A621E4B5A6847F6C073134047F6C07260
:1027A000FA60FA6892FAA2F2BA60BA68B2FA82F2F1
:1027B00023FA02F27B685A62144B5B6803F44033DD
:1027C00003F580335A004FF440337B617B6993FA01
:1027D000A3F33B613B69B3FA83F3DA407B689A6207
:1027E0000A4B5B6803F070624FF07063FB61FB693A
:1027F00093FAA3F3BB61BB69B3FA83F3DA407B6856
:10280000DA6200BF2C37BD4680BC704700380240FA
:1028100080B483B000AF786039607B680F221A60A3
:10282000114B9B6803F003027B685A600E4B9B6858
:1028300003F0F0027B689A600B4B9B6803F4E05254
:102840007B68DA60084B9B68DB0803F4E0527B6826
:102850001A61064B1B6803F00F023B681A6000BF49
:102860000C37BD4680BC704700380240003C024037
:1028700080B500AF064BDB6803F08003802B04D1EA
:1028800000F00AF8034B80221A7000BF80BD00BF21
:10289000003802400E38024080B400AF00BFBD4691
:1028A00080BC704780B483B000AF7860FEE780B52D
:1028B00000AF034800F08AFE012000F0E5F800BFF9
:1028C000004E000880B584B000AF7860144B1B68E0
:1028D000002B02D1124B134A1A60114B1B68FB608C
:1028E0007B68033323F003037B600D4B1A687B681E
:1028F00013440D4A934207D901F020FB03460C22F2
:102900001A604FF0FF3306E0054B1A687B681344EA
:10291000034A1360FB6818461037BD4680BD00BFF0
:10292000740000204802002000FC0120B0B590B0E7
:1029300000AF786039600023FB630023BB634F4B1B
:10294000FB604F233B611523FB6107F10C03BB6167
:10295000FC69BD6920462946ABBE04467C617B69A3
:10296000FB62FB6A002B6BD1444B002283F84F20A3
:10297000FB687B6300233B635AE0BB6B002B2CD1CD
:10298000BB6A3B623B6A01333D4A13441B785BB22E
:10299000002B02DB3B6A092B01D1012300E000235D
:1029A000002B42D1FB6B082B49DCBB6A222B02D0E7
:1029B000BB6A272B07D1BB6A3B637B6B01337B630D
:1029C0007B6B1B78BB62FB6B5A1CFA632D497A6BDD
:1029D00041F823200123BB6327E03B6B002B0BD086
:1029E000BA6A3B6B9A4220D100233B637B6B002287
:1029F0001A700023BB6318E0BB6A7B627B6A0133F9
:102A00001F4A13441B785BB2002B02DB7B6A092B45
:102A100001D1012300E00023002B06D000233B63FB
:102A20007B6B00221A700023BB637B6B01337B63DB
:102A30007B6B1B78BB62BB6A002B9ED100E000BFA2
:102A4000FB6B002B08D10D4B00221A700D4B0B4A6B
:102A50001A60FB6B0133FB630A4AFB6B002142F8EF
:102A600023107B68FA6B1A603B68064A1A6000F014
:102A700087F800BF4037BD46B0BD00BF2C01002025
:102A80001C5000087C010020B0B586B000AF786013
:102A90007B68002B01D1084B00E0084B7B617B6910
:102AA00018223A61FB603C69FD6820462946ABBEAE
:102AB0000446BC60FEE700BF2600020023000200BF
:102AC00080B582B000AF7860396001F037FA034614
:102AD00058221A604FF0FF3318460837BD4680BDB4
:102AE00080B582B000AF7860114B1B68002B09D015
:102AF0000F4B1B689B6B002B04D10D4B1B681846BA
:102B000001F07AFA7B68132B01D900230CE0094A03
:102B10007B6852F83330B3F1FF3F01D1002303E06B
:102B20007B68DB00034A134418460837BD4680BD66
:102B3000080000208000002080B483B000AF002394
:102B40007B6009E00D4A7B6852F83330B3F1FF3FF8
:102B500006D07B6801337B607B68132BF2DD00E0DD
:102B600000BF7B68142B02D14FF0FF3300E07B687D
:102B700018460C37BD4680BC704700BF800000205F
:102B8000B0B58EB000AF364B7B600323FB600023F3
:102B9000BB600123BB613B1D7B61BC697D69204635
:102BA0002946ABBE04463C613B692E4A13602C4B60
:102BB0007B600323FB600423BB6001237B623B1D1E
:102BC0003B627C6A3D6A20462946ABBE0446FC61F6
:102BD000FB69254A1360224B7B600323FB600823BB
:102BE000BB6001233B633B1DFB623C6BFD6A2046DF
:102BF0002946ABBE0446BC62BB6A1C4A13601B4B31
:102C00001B68B3F1FF3F03D1174B1B68174A1360D2
:102C100000237B6308E0164A7B6B4FF0FF3142F8DC
:102C200033107B6B01337B637B6B132BF3DD0D4B1D
:102C30001B680F4A13600E4B00225A600A4B1B6838
:102C40000B4A93600A4B0022DA60084B1B68084A63
:102C50001361074B00225A6100BF3837BD46B0BD33
:102C6000144E00082001002024010020280100202B
:102C700080000020B0B584B000AF1323FB600023B8
:102C8000BB60FC68BD6820462946ABBE04467C603C
:102C90007B6818461037BD46B0BD90B583B000AF15
:102CA000786001F04BF90446FFF7E4FF0346236028
:102CB0007B6818460C37BD4690BD80B582B000AF2A
:102CC00078607B68B3F1FF3F05D14FF0FF30FFF72D
:102CD000E4FF034600E07B6818460837BD4680BD28
:102CE000B0B58AB000AFF860B9607A60FB683B614C
:102CF000BB687B617B68BB6106237B6207F11003C5
:102D00003B627C6A3D6A20462946ABBE0446FC61B4
:102D1000FB691846FFF7D1FF034618462837BD4622
:102D2000B0BD80B586B000AFF860B9607A60F86871
:102D3000FFF7D6FE78617B69002B07D101F0FEF822
:102D4000034609221A604FF0FF3318E07B691B68C5
:102D50007A68B9681846FFF7C3FF38613B69B3F179
:102D6000FF3F01D13B690AE07B695A6879683B699A
:102D7000CB1A1A447B695A607A683B69D31A1846A1
:102D80001837BD4680BDB0B58EB000AFF860B960F1
:102D90007A60F868FFF7A4FE78637B6B002B07D19D
:102DA00001F0CCF8034609221A604FF0FF3373E0BC
:102DB0007B68012B0DD07B68002B0AD07B68022B2F
:102DC00007D001F0BBF8034616221A604FF0FF331C
:102DD00062E07B68012B1DD17B6B5B68BA68134492
:102DE000BB60BB68002B13DA01F0A8F8034616227B
:102DF0001A607B6B5B68002B07DDBB68002B04DD72
:102E000001F09CF803468B221A604FF0FF3343E039
:102E100000237B607B68022B1ED17B6B1B683B61B0
:102E20000C23FB6207F11003BB62FC6ABD6A2046FB
:102E30002946ABBE04467C627B6A1846FFF73DFF1D
:102E400038633B6BB3F1FF3F02D14FF0FF3323E018
:102E5000BA683B6B1344BB607B6B1B683B61BB6810
:102E60007B610A233B6207F11003FB613C6AFD6949
:102E700020462946ABBE0446BC61BB691846FFF735
:102E80001CFF38633B6B002B04DB7B6BBA685A601A
:102E9000BB6801E04FF0FF3318463837BD46B0BD80
:102EA00080B584B000AFF860B9607A607A68B968BC
:102EB000F868FFF768FF034618461037BD4680BD27
:102EC000B0B58AB000AFF860B9607A60FB683B616A
:102ED000BB687B617B68BB6105237B6207F11003E4
:102EE0003B627C6A3D6A20462946ABBE0446FC61D3
:102EF000FB691846FFF7E1FE034618462837BD4632
:102F0000B0BD80B586B000AFF860B9607A60F8688F
:102F1000FFF7E6FD78617B69002B07D101F00EF821
:102F2000034609221A604FF0FF3321E07B691B68DA
:102F30007A68B9681846FFF7C3FF38613B69002B10
:102F400002DA4FF0FF3313E07B695A6879683B6916
:102F5000CB1A1A447B695A607A683B699A4204D159
:102F60000020FFF79AFE034602E07A683B69D31A15
:102F700018461837BD4680BDB0B5A2B000AF786026
:102F800039600023C7F88430FFF7D6FDC7F880000A
:102F9000D7F88030B3F1FF3F07D100F0CFFF0346F1
:102FA00018221A604FF0FF3387E03B6803F4007388
:102FB000002B17D03B6803F40063002B12D007F1FD
:102FC00008031946786800F03BF9F867FB6FB3F126
:102FD000FF3F07D000F0B2FF034611221A604FF006
:102FE000FF336AE03B6803F48033002B05D0D7F849
:102FF000843043F00103C7F884303B6803F00203D8
:10300000002B05D0D7F8843043F00203C7F8843092
:103010003B6803F40073002B09D13B6803F4806321
:10302000002B04D13B6803F00103002B05D0D7F837
:10303000843043F00403C7F884303B6803F008038E
:10304000002B0BD0D7F8843023F00403C7F884306A
:10305000D7F8843043F00803C7F884307B683B66B8
:10306000786801F028F90346BB66D7F884307B66A0
:1030700001237B6707F160033B677C6F3D6F204650
:103080002946ABBE0446FC66FB6EBB67BB6F002BDC
:103090000FDB0C49D7F88030BA6F41F83320094A6A
:1030A000D7F88030DB00134400225A60D7F8803014
:1030B00003E0B86FFFF7F1FD034618468837BD46B9
:1030C000B0BD00BF800000200EB480B583B000AF5B
:1030D000786079697868FFF74FFF034618460C3728
:1030E000BD46BDE8804003B07047B0B586B000AFC4
:1030F000786002237B613B1D3B617C693D69204612
:103100002946ABBE0446FC60FB681846FFF7D5FDB8
:10311000034618461837BD46B0BD80B584B000AF31
:1031200078607868FFF7DCFCF860FB68002B07D15B
:1031300000F004FF034609221A604FF0FF331FE03E
:103140007B68012B02D07B68022B0BD10E4B9A6857
:103150000D4B1B699A4205D1FB684FF0FF321A6094
:1031600000230DE0FB681B681846FFF7BEFFB86040
:10317000BB68002B03D1FB684FF0FF321A60BB68BD
:1031800018461037BD4680BD8000002080B483B053
:1031900000AF7860012318460C37BD4680BC7047ED
:1031A000B0B588B000AF786039607868FFF798FCF8
:1031B000F861FB69002B07D100F0C0FE034609222D
:1031C0001A604FF0FF3324E03B685B6843F4005221
:1031D0003B685A603B684FF480625A64FB690C227A
:1031E0007A613B617C693D6920462946ABBE044655
:1031F000FC60FB681846FFF760FDB861BB69B3F17E
:10320000FF3F02D14FF0FF3303E03B68BA691A6118
:10321000002318462037BD46B0BD80B582B000AF50
:103220007860396058220021386800F085FF3968DD
:103230007868FFF7B5FF034618460837BD4680BDDE
:1032400080B584B000AF78603960582200213868BA
:1032500000F072FF00217868FFF736FFF860FB6826
:10326000B3F1FF3F02D14FF0FF330EE03B685B68E4
:1032700043F401423B685A603968F868FFF790FFF1
:10328000B860F868FFF749FFBB6818461037BD46BD
:1032900080BD80B500AF00F051FE034658221A6091
:1032A0004FF0FF33184680BDB0B588B000AF7860EE
:1032B0007B68BB60786800F0FEFF0346FB600E236E
:1032C000BB6107F108037B61BC697D692046294623
:1032D000ABBE04463C613B69FB61FB69B3F1FF3F58
:1032E00004D1F869FFF7D9FC034600E00023184633
:1032F0002037BD46B0BDB0B586B000AF786039604C
:103300003B687B617B68002B14D011233B61002359
:10331000FB603C69FD6820462946ABBE0446BC60A4
:10332000BB681A464FEAE2737968C1E900237B68FB
:1033300000229A607B69002B05D07B6900221A600D
:103340007B6900225A60002318461837BD46B0BD7D
:10335000B0B584B000AF1023BB6000237B60BC68B5
:103360007D6820462946ABBE04463C603B68FB6056
:10337000FB6818461037BD46B0BD80B584B000AFBD
:103380007860FFF7E5FFF8607B68002B0BD07B6867
:10339000FA681A607B6800225A607B6800229A6093
:1033A0007B680022DA60FB6818461037BD4680BD96
:1033B000B0B588B000AF78607868FFF791FBF8612E
:1033C000FB69002B06D100F0B9FD034609221A6003
:1033D000002319E0FB6909227A613B617C693D6940
:1033E00020462946ABBE0446FC60FB68BB61BB6956
:1033F000012B01D1012307E000F0A0FD0446FFF7F7
:1034000039FC03462360002318462037BD46B0BD73
:10341000B0B58AB000AF78607B68002B01D1012382
:103420002DE07B68FB60786800F045FF03463B6158
:103430001223FB6107F10C03BB61FC69BD692046E7
:103440002946ABBE04467C617B691846FFF735FC14
:1034500078627B6A002B11DB7B6AFF2B0EDC7B6AB8
:103460003B6202E07B6A5B007B627B6A002B05D0DB
:103470007B6A1B12DBB23A6A9A42F3D17B6A184626
:103480002837BD46B0BDB0B58AB000AF78603960AE
:103490007B68FB60786800F00EFF03463B613B6889
:1034A0007B61386800F007FF0346BB610F237B6236
:1034B00007F10C033B627C6A3D6A20462946ABBE9D
:1034C0000446FC61FB691846FFF7F7FB0346002B37
:1034D00002D04FF0FF3300E0002318462837BD46E6
:1034E000B0BD80B582B000AF7860396000F026FDD5
:1034F000034658221A604FF0FF3318460837BD467E
:1035000080BD80B582B000AF786039603A68044908
:10351000786800F0D8FE7B6818460837BD4680BD45
:10352000184E000880B586B002AFF860B9607A60C6
:103530003B607B68002B01D0094A00E0094A7B68A8
:10354000002B01D07B6800E0064B01930092BB6822
:10355000FA683968044800F017F8FFF7A8F900BFC7
:10356000204E0008304E0008344E000880B582B06E
:1035700000AF786039603A687968024800F004F872
:10358000FFF795F9644E00080FB480B582B000AF24
:1035900007F114033B603B683A6980210A4800F058
:1035A000D1FE78607B68002B05DD7B6819460648F4
:1035B00000F06AF878607B6818460837BD46BDE8B9
:1035C000804004B0704700BFA401002080B582B0E5
:1035D00000AF7860786800F06EFE034619467868A0
:1035E00000F052F80121044800F04EF80346184656
:1035F0000837BD4680BD00BF904E000880B582B040
:1036000000AF78603B1D0121184600F03DF87B6853
:1036100018460837BD4680BD80B584B000AF7860DD
:10362000396079681148FFF7AFFF0023FB6011E0B4
:10363000FB68002B02D00E48FFF7A6FFFB689B003B
:103640003A6813441B6819460A48FFF79DFFFB6858
:103650000133FB60FA687B689A42E9DB0648FFF7B2
:1036600093FF00BF1037BD4680BD00BF944E0008D9
:10367000AC4E0008B04E0008B84E000880B400AF51
:1036800000BFBD4680BC704780B582B000AF786097
:1036900039603968786800F005F80346184608373D
:1036A000BD4680BDB0B590B000AF786039607A6833
:1036B0003B6813441B78002B0BD104233B637B68CE
:1036C000FB623C6BFD6A20462946ABBE0446BC62E9
:1036D00036E03B68FB6330E0FB6B102B28BF102308
:1036E0007B630023BB630DE07B68197807F10C0254
:1036F000BB6B13440A461A70BB6B0133BB637B6818
:1037000001337B60BA6B7B6B9A42EDD307F10C02FD
:10371000BB6B134400221A7004237B6207F10C0375
:103720003B627C6A3D6A20462946ABBE0446FC618A
:1037300000BFFA6B7B6BD31AFB63FB6B002BCBD107
:103740003B6818464037BD46B0BD000080B500AFAD
:1037500000F0BEF9024B034A9A6000BF80BD00BF73
:1037600000ED00E00000000880B500AF00F0DEF9D9
:1037700000BF80BD80B400AFBFF34F8F00BF074BC9
:10378000DB6803F4E0620549054B1343CB60BFF3EC
:103790004F8F00BF00BF00BFFCE700BF00ED00E09F
:1037A0000400FA0580B584B000AFF860B9607A60B3
:1037B0003B603448FFF7E8FEFB681B681946324857
:1037C000FFF7E2FEFB685B6819463048FFF7DCFE56
:1037D000FB689B6819462E48FFF7D6FEFB68DB683E
:1037E00019462C48FFF7D0FEFB681B6919462A488A
:1037F000FFF7CAFEFB685B6919462848FFF7C4FE5D
:10380000FB689B6919462648FFF7BEFEFB68DB692B
:1038100019462448FFF7B8FE2348FFF7B5FEB968FC
:103820002248FFF7B1FE224BDB6A19462148FFF719
:10383000ABFE1F4B1B6B19461F48FFF7A5FE1C4B29
:10384000DB6B19461D48FFF79FFEBB6803F0800342
:10385000002B03D079681A48FFF796FEBB6803F483
:103860000043002B03D039681648FFF78DFE164839
:10387000FFF78AFEB9691548FFF786FE00BF1037CB
:10388000BD4680BDC04E0008D04E0008E04E000886
:10389000F04E0008004F0008104F0008204F0008AD
:1038A000304F0008404F0008504F00085C4F0008A0
:1038B00000ED00E06C4F00087C4F00088C4F0008C2
:1038C0009C4F0008AC4F0008BC4F0008C44F0008D4
:1038D00080B586B000AF78600B467B807B689B69C3
:1038E0007B617B691B887A889A4240F0E9807B681B
:1038F0001B683B617B685B68FB60FB68BB603B6986
:10390000013B302B00F2D28001A252F823F000BF1D
:10391000393A0008DF390008B13A0008B13A000826
:103920008B3A0008173A0008213A00080F3A0008BD
:10393000D5390008D5390008AD3A0008D539000856
:10394000D5390008D5390008D5390008D53900081F
:10395000293A0008D5390008E7390008AD3A0008CF
:10396000D5390008EF390008AD3A0008313A0008AF
:10397000AD3A0008AD3A0008AD3A0008AD3A00088B
:10398000AD3A0008AD3A0008AD3A0008AD3A00087B
:10399000AD3A0008AD3A0008AD3A0008AD3A00086B
:1039A000AD3A0008AD3A0008AD3A0008AD3A00085B
:1039B000AD3A0008AD3A0008AD3A0008AD3A00084B
:1039C000AD3A0008AD3A0008AD3A0008D539000814
:1039D000D53900087B684FF0FF321A6069E07B68D8
:1039E00000221A6065E07B6800221A6061E0BB6813
:1039F00000221A60BB68043300221A60BB680833D7
:103A000000221A60BB680C3300221A6051E07B6808
:103A100000221A604DE0BB689A687B681A6048E033
:103A20007B6800221A6044E07B6800221A6040E054
:103A3000FFF7A0FE002344E0BB681B68234918463B
:103A400000F02FFC0346002B1AD1BB6804331B681F
:103A5000002B03D17B6801221A602AE0BB68043383
:103A60001B68042B03D17B6802221A6021E0BB682B
:103A700004331B68082B03D17B6803221A6018E00B
:103A80007B684FF0FF321A6013E0BB681B68022BA3
:103A900003D0BB681B68032B03D17B6800221A602C
:103AA00007E0BB689A687B681A6002E0002308E0C0
:103AB00000BF7B689B699A1C7B689A61012300E0C8
:103AC000002318461837BD4680BD00BFDC4F0008F4
:103AD00080B400AF124B1B68114A43F0010313601E
:103AE0000F4B00229A600E4B1B680D4A23F0847323
:103AF00023F4803313600A4B0A4A5A60084B1B6850
:103B0000074A23F480231360054B0022DA60064B3A
:103B10004FF000629A6000BFBD4680BC704700BF96
:103B2000003802401030002400ED00E080B487B07F
:103B300000AF00233B6100237B610223FB60002375
:103B4000BB6002237B60344B9B6803F00C033B613A
:103B50003B69082B11D03B69082B44D83B69002BEB
:103B600003D03B69042B04D03DE02C4B2C4A1A6057
:103B70003DE02A4B2B4A1A6039E0274B5B689B0DCE
:103B800003F00103BB60244B5B6803F03F037B60E1
:103B9000BB68002B0CD0234A7B68B2FBF3F31E4AB0
:103BA00052689209C2F3080202FB03F37B610BE047
:103BB0001B4A7B68B2FBF3F3174A52689209C2F3BF
:103BC000080202FB03F37B61134B5B681B0C03F0E1
:103BD000030301335B00FB607A69FB68B2FBF3F31C
:103BE0000E4A136003E00D4B0D4A1A6000BF0A4BEA
:103BF0009B681B0903F00F030B4AD35C3B61074B27
:103C00001A683B6922FA03F3044A136000BF1C37A9
:103C1000BD4680BC704700BF003802400400002051
:103C20000024F40000127A000C50000880B500AFA8
:103C3000FCF766FC00F004F8FFF778FF00BF80BDDA
:103C400080B594B000AF0023BB602A4B1B6C294A9F
:103C500043F080531364274B1B6C03F08053BB600D
:103C6000BB6800237B60244B1B68234A43F48043DA
:103C70001360214B1B6803F480437B607B68012346
:103C80003B6201237B624FF48003FB6308233B64A8
:103C90004FF4A8737B640223BB640723FB640223F5
:103CA000BB6307F120031846FDF7E2FE0F23FB601C
:103CB00002233B6100237B614FF4A053BB614FF4AF
:103CC0008053FB6107F10C0305211846FEF790F9BC
:103CD000FEF796FC0346094AA2FB03239B091846FC
:103CE000FCF7BAFF0420FDF7B7F900BF5037BD4617
:103CF00080BD00BF0038024000700040D34D62100C
:103D000080B483B000AF03463960FB7197F9073088
:103D1000002B0BDA3B68DAB20C49FB7903F00F0396
:103D2000043B1201D2B20B441A7609E03B68DAB2C6
:103D3000074997F907301201D2B20B4483F80023E8
:103D400000BF0C37BD4680BC704700BF00ED00E0EF
:103D500000E100E080B582B000AF78607B68013B95
:103D6000B3F1807F01D301230FE00A4A7B68013B56
:103D700053600F214FF0FF30FFF7C2FF054B0022C9
:103D80009A60044B07221A60002318460837BD4684
:103D900080BD00BF10E000E080B584B000AF786067
:103DA0003960FCF7ADFB0A4B1B680A4AA2FB0323F0
:103DB0009B0A1846FFF7CEFF00F06DF8064BFB603C
:103DC000064BBB60FB689847BB689847FAE700BFA3
:103DD00004000020D34D6210E13D0008073E0008BA
:103DE00080B500AF4FF4005000F06CF84FF47A70DB
:103DF00000F03CF84FF4005000F076F84FF47A7081
:103E000000F034F8EEE780B500AF4FF4805000F0DA
:103E100059F84FF47A7000F029F84FF4805000F010
:103E200063F84FF47A7000F021F8EEE780B400AF49
:103E3000044B1B680133034A136000BFBD4680BCBE
:103E4000704700BF2402002080B483B000AF72B678
:103E500000BF054B1B687B6062B600BF7B681846DD
:103E60000C37BD4680BC70472402002080B584B06A
:103E700000AF7860FFF7E8FFF86000BFFFF7E4FFEE
:103E80000246FB68D31A7A689A42F7D800BF00BF8F
:103E90001037BD4680BD80B400AF084B1B6B074A8E
:103EA00043F008031363064B1B68054A43F0AA431B
:103EB000136000BFBD4680BC704700BF00380240A1
:103EC000000C024080B483B000AF7860054B5A69A3
:103ED00004497B6813434B6100BF0C37BD4680BC6F
:103EE000704700BF000C024080B483B000AF786020
:103EF000054B5A697B68DB43034913404B6100BFA4
:103F00000C37BD4680BC7047000C024080B400AF47
:103F100000BFBD4680BC704780B400AF00BFBD4647
:103F200080BC704780B400AF00BFBD4680BC704706
:103F300080B400AF00BFBD4680BC7047014B18681D
:103F4000704700BF08000020002310B50446C0E9F8
:103F50000033C0E90433836081814366C281836199
:103F6000194608225C3000F0E7F8054B6362054B08
:103F7000A362054BE362054B2462236310BD00BFBF
:103F80001D4200083F420008774200089B4200089B
:103F9000014900F0AFB800BFB144000870B54A1E37
:103FA000682555430E4605F1740100F0CDF804462E
:103FB00040B10021C0E900160C30A06005F1680294
:103FC00000F0BAF8204670BD014800F0B3B800BF59
:103FD00040020020014800F0AEB800BF40020020BF
:103FE000014800F0A7B800BF3B020020014800F0E4
:103FF000A2B800BF3B02002010B50446FFF7F0FF57
:10400000A3691BB1BDE81040FFF7F0BFC4E912334C
:104010002365134B134A1B68A262A34204BF01230A
:10402000A361204600F020F86060204600F01CF8F4
:10403000A060204600F018F80022E06004216068CB
:10404000FFF782FFA06801220921FFF77DFFE068EA
:1040500002221221FFF778FF0123A361D2E700BFFC
:1040600080510008913F0008F8B50746FFF7ACFF04
:104070001E4B1E68B36913B93046FFF7BDFF4836C3
:10408000D6E90134013B03D533680BB33668F7E753
:10409000B4F90C50D5B9164BE36004F158006566CD
:1040A00000F047F8FFF796FFC4E90155C4E904554D
:1040B0002560A5610822294604F15C0000F03CF867
:1040C000C4E90D55C4E912552046F8BD6834D9E756
:1040D00004213846FFF762FF044630600028D5D13E
:1040E000FFF778FF0C233B60EEE700BF805100082C
:1040F0000100FFFF2DE9F8430646884600F1480419
:104100000027D4E90195B9F1010905D52468002CEF
:10411000F7D13846BDE8F883AB89012B07D9B5F94B
:104120000E30013303D029463046C0470743683577
:10413000E9E770477047704702440346934200D155
:10414000704703F8011BF9E7F8B5CD1C25F003050E
:1041500008350C2D38BF0C25002D064601DBA94281
:1041600003D90C2333600020F8BD00F0EFF921499A
:104170000A6814469CB9204F3B6823B92146304653
:1041800000F03CF838602946304600F037F8431C10
:1041900023D10C233360304600F0DEF9E3E72368D7
:1041A0005B1B17D40B2B03D923601C44256004E050
:1041B0006368A2420CBF0B605360304600F0CCF93C
:1041C00004F10B00231D20F00700C21ACCD01B1AEB
:1041D000A350C9E722466468CCE7C41C24F003045A
:1041E000A042E3D0211A304600F008F80130DDD1BA
:1041F000CFE700BF280200202C02002038B5064D72
:104200000023044608462B60FEF75CFB431C02D1EA
:104210002B6803B1236038BD3402002010B50C4672
:10422000B1F90E1000F0DCFC0028ABBF636DA38970
:104230001B1823F48053ACBF6365A38110BD2DE927
:10424000F0411F468B89DB0505460C46164605D511
:10425000B1F90E100223002200F066F9A389B4F927
:104260000E1023F48053A38132463B462846BDE816
:10427000F04100F075B810B50C46B1F90E1000F021
:1042800053F9431CA38915BF606523F4805343F49D
:104290008053A38118BFA38110BDB1F90E1000F0A7
:1042A00071B810F8012B11F8013B012A28BF9A427E
:1042B000F7D0D01A7047034613F8012B002AFBD120
:1042C000181A0138704710B50139034632B111F898
:1042D000014F03F8014B013A002CF7D11A44002199
:1042E000934200D110BD03F8011BF9E730B5141E4D
:1042F00005469BB0184605DA8B232B604FF0FF3044
:104300001BB030BD4FF40273ADF80C3014BF04F194
:10431000FF332346029305934FF6FF7300910491F8
:10432000ADF80E3002461E9B6946284600F0C4F9DF
:10433000431CBCBF8B232B60002CE1D0009B0022D0
:104340001A70DDE707B5009313460A460146034895
:104350000068FFF7CBFF03B05DF804FB0800002006
:1043600038B5074D04460846114600222A601A4611
:10437000FEF7C7FD431C02D12B6803B1236038BD93
:104380003402002038B5064D0023044608462B6051
:10439000FEF7C3FE431C02D12B6803B1236038BD76
:1043A000340200208A892DE9F041054610070C46A9
:1043B00058D44B68002B05DC0B6C002B02DC002072
:1043C000BDE8F081E66A002EF9D0002312F4805295
:1043D0002F682B6032D0606DA3895A0705D56368BA
:1043E000C01A636B0BB1236CC01A00230246E66A45
:1043F000216A2846B047431CA38906D129681D2994
:104400002CD82A4ACA40D60728D500226260D9048F
:104410002269226004D5421C01D12B6803B9606572
:10442000616B2F600029CAD004F14403994202D085
:10443000284600F097F800206063C1E7216A012355
:104440002846B047411CC7D12B68002BC4D01D2B78
:1044500001D0162B01D12F60B1E7A38943F04003AF
:10446000A381ADE70F69002FA9D093070E6808BF9D
:104470004B690F6018BF0023A6EB07088B60B8F1EB
:10448000000F9CDD216AA66A43463A462846B0479B
:10449000002806DCA38943F04003A3814FF0FF30DE
:1044A0008EE70744A8EB0008E9E700BF01004020C1
:1044B00038B50B6905460C4613B90025284638BDAA
:1044C00018B183690BB9FFF797FD144B9C421BD1C0
:1044D0006C68B4F90C30002BEFD0626ED00704D4B6
:1044E000990502D4A06DFFF725FE28462146FFF767
:1044F00059FF636EDA070546E0D4A3899B05DDD436
:10450000A06DFFF718FED9E7054B9C4201D1AC68BE
:10451000DFE7044B9C4208BFEC68DAE74051000833
:10452000605100082051000838B5074D0446084680
:10453000114600222A601A46FEF7B2FC431C02D143
:104540002B6803B1236038BD340200200148FFF717
:10455000F1BD00BF3C0200200148FFF7ECBD00BFE9
:104560003C02002038B50546002945D051F8043CEE
:104570000C1F002BB8BFE418FFF7E8FF1F4A1368B1
:10458000104633B9636014602846BDE83840FFF731
:10459000E3BFA3420BD921686218934204BF1A6893
:1045A0005B68636004BF521822600460ECE71A463F
:1045B0005B680BB1A342FAD911685018A0420BD125
:1045C00020680144501883421160DDD118685B688F
:1045D000536001441160D7E702D90C232B60D3E765
:1045E000206821188B4204BF19685B68636004BFB0
:1045F000091821605460C7E738BD00BF28020020B9
:104600002DE9F0478E689E4282460C4690461F4632
:1046100038D88A8912F4906F32D025680969A5EBE1
:104620000109656905EB450505EBD57501334B447B
:104630006D109D4238BF1D46530531D52946FFF701
:1046400083FD064650B90C23CAF80030A38943F015
:104650004003A3814FF0FF30BDE8F08721694A464F
:1046600000F026FBA38923F4906343F08003A38129
:10467000266165614E44A5EB09052660A5603E46AE
:10468000BE4200D93E4632462068414600F01EFB3D
:10469000A36822689B1B3244A36022600020DBE7F2
:1046A0002A4600F02DFB06460028E1D1216950463C
:1046B000FFF758FFC7E700002DE9F04F98468B89B8
:1046C0001B069DB007460D4614460ED50B6963B90F
:1046D0004021FFF739FD2860286120B90C233B6099
:1046E0004FF0FF30D1E040236B610023099320237A
:1046F0008DF82930CDF80C803023DFF8A8818DF8B3
:104700002A304FF0010923469A4613F8012B0AB1CB
:10471000252AF9D1BAEB040B0BD05B462246294679
:104720003846FFF76DFF013000F0AA80099A5A441D
:1047300009929AF80030002B00F0A28000234FF07D
:10474000FF32CDE905230AF1010A049307938DF89E
:1047500053301A935446052214F8011B514800F0B7
:1047600057FA049AD8B9D00644BF20238DF85330A5
:10477000110744BF2B238DF853309AF800302A2BB1
:1047800015D0079A544600204FF00A0C214611F824
:10479000013B303B092B4ED9B0B1079214E0A0EB9E
:1047A000080309FA03F313430493A246D2E7039BD9
:1047B000191D1B680391002BBBBF5B4242F0020234
:1047C00007930793B8BF049223782E2B0CD16378FC
:1047D0002A2B35D1039B1A1D1B680392002BB8BFEF
:1047E0004FF0FF3302340593DFF8C8A0217803228D
:1047F000504600F00DFA40B14023A0EB0A0003FA46
:1048000000F0049B03430134049314F8011B264871
:104810008DF82810062200F0FBF9002838D0234B31
:104820001BBB039B073323F0070308330393099B48
:104830003344099367E70CFB02320C460120A5E7DD
:1048400000230134059319464FF00A0C204610F856
:10485000012B303A092A03D9002BC5D00591C3E7B3
:104860000CFB012104460123F0E703AB00932A4629
:104870000F4B04A93846AFF30080421C0646D6D140
:10488000AB895B063FF52CAF09981DB0BDE8F08FF2
:1048900003AB00932A46064B04A9384600F07AF889
:1048A000EBE700BF845100088E51000800000000B3
:1048B000014600088A5100082DE9F047164699463E
:1048C0008A680B69DDF820809342B8BF13463360D5
:1048D00091F8432007460C460AB101333360236840
:1048E000990642BF336802333360256815F0060528
:1048F00006D104F1190AE36832689B1AAB4226DC40
:1049000094F84320131E226818BF012392062BD46B
:1049100004F1430249463846C04701301ED023689F
:10492000E568326803F00603042B08BFAD1AA368DC
:1049300022690CBF25EAE57500259342C4BF9B1A86
:10494000ED1800261A34B5421AD1002008E00123E0
:10495000524649463846C047013003D14FF0FF3038
:10496000BDE8F0870135C6E7E1185A1C302081F810
:104970004300224494F8451082F843100233C7E7FD
:104980000123224649463846C0470130E6D0013669
:10499000D9E700002DE9FF470C469146277E0C9988
:1049A000782F80469A4604F1430207D8622F0AD82E
:1049B000002F00F0D880582F00F0A38004F14206A9
:1049C00084F842703AE0A7F16303152BF6D801A0F2
:1049D00050F823F02D4A0008414A0008BD4900085C
:1049E000BD490008BD490008BD490008414A00080A
:1049F000BD490008BD490008BD490008BD4900087F
:104A00004D4B0008714A00082F4B0008BD490008B3
:104A1000BD4900086F4B0008BD490008714A0008F5
:104A2000BD490008BD490008374B00080B681A1D36
:104A30001B680A6004F1420684F842300123A3E0B7
:104A4000256808682E0600F104030AD505680B6086
:104A5000002D03DA2D236D4284F843305E480A238B
:104A600019E015F0400F05680B6018BF2DB2EFE795
:104A70000B682568181D0860280601D51D6802E02E
:104A80006906FBD51D8854486F2F0CBF08230A23E5
:104A9000002184F843106668A660002EA2BF21683A
:104AA00021F0040121600DB9002E4DD01646B5FB52
:104AB000F3F103FB1157C75D06F8017D2F46BB429A
:104AC0000D46F4D9082B0BD12368DF0708D52369DD
:104AD00061689942DEBF302306F8013C06F1FF36DB
:104AE000921B2261CDF800A04B4603AA2146404606
:104AF000FFF7E2FE01304CD14FF0FF3004B0BDE8CB
:104B0000F087354884F8457023680E681F0656F80C
:104B1000045B0E6014D5D90744BF43F02003236023
:104B20001DB9236823F0200323601023B0E7236816
:104B300043F0200323607823284884F84530E3E7D6
:104B40005E0648BFADB2E6E71646BBE70B682668CF
:104B500060691D1D0D6035061B6801D5186002E0F7
:104B60007106FBD51880002323611646BAE70B684F
:104B70001A1D0A601E6862680021304600F048F87D
:104B800008B1801B606063682361002384F84330B0
:104B9000A8E72369324649464046D0470130ABD0AA
:104BA00023689B0713D4E068039B9842B8BF18465C
:104BB000A4E70123324649464046D04701309BD006
:104BC0000135E36803995B1AAB42F2DCEBE70025A1
:104BD00004F11906F5E700BF95510008A651000839
:104BE00038B5074D04460846114600222A601A4689
:104BF000FEF797F8431C02D12B6803B1236038BD40
:104C0000340200200000000000000000000000004E
:104C100001F0FF01102A2BDB10F0070F08D010F86D
:104C2000013B013A8B422DD010F0070F42B3F6D171
:104C3000F0B441EA012141EA014122F007047FF08A
:104C400000070023F0E80256083C85EA010586EAE1
:104C5000010685FA47F5A3FA87F586FA47F6A5FA1D
:104C600087F68EB9EED1F0BC01F0FF0102F0070229
:104C700032B110F8013B013A83EA010313B1F8D1D4
:104C80000020704701387047002D06BF35460338B5
:104C9000073815F0010F07D1013015F4807F02BFEE
:104CA000013015F4C03F0130F0BC0138704700BF3F
:104CB0000A44914200F1FF3300D1704710B511F85A
:104CC000014B03F8014F9142F9D110BD884210B554
:104CD00001EB020402D98442234607D8431EA142B5
:104CE00008D011F8012B03F8012FF8E70244014620
:104CF0008A4200D110BD13F8014D02F8014DF7E7CB
:104D0000F8B5074614460E4621B9BDE8F8401146ED
:104D1000FFF71ABA22B9FFF725FC25462846F8BD49
:104D200000F014F8A0420FD221463846FFF70CFAE3
:104D300005460028F2D031462246FFF7B9FF31463A
:104D40003846FFF70FFCE9E73546E7E751F8043C42
:104D5000181F002BBCBF0B58C01870472E2E2F7386
:104D6000797374656D2F7372632F73746D3332664C
:104D7000342D68616C2F73746D3332663478785FCC
:104D800068616C5F636F727465782E630000000069
:104D90002E2E2F73797374656D2F7372632F737456
:104DA0006D333266342D68616C2F73746D333266E7
:104DB0003478785F68616C5F6770696F2E6300009C
:104DC00000000000010203040102030406070809B1
:104DD0002E2E2F73797374656D2F7372632F737416
:104DE0006D333266342D68616C2F73746D333266A7
:104DF0003478785F68616C5F7263632E63000000D3
:104E000061626F727428292C2065786974696E67F5
:104E10002E2E2E003A7474002F746D700000000066
:104E20002C2066756E6374696F6E3A200000000076
:104E300000000000617373657274696F6E20222533
:104E40007322206661696C65643A2066696C65202E
:104E5000222573222C206C696E652025642573251C
:104E6000730A00006173736572745F706172616DC3
:104E70002829206661696C65643A2066696C652042
:104E8000222573222C206C696E652025640A00009F
:104E90000A0000006D61696E28617267633D2564D8
:104EA0002C20617267763D5B000000002C20000022
:104EB00022257322000000005D293B0A000000004B
:104EC000537461636B206672616D653A0A0000007D
:104ED000205230203D2020253038580A00000000A4
:104EE000205231203D2020253038580A0000000093
:104EF000205232203D2020253038580A0000000082
:104F0000205233203D2020253038580A0000000070
:104F100020523132203D20253038580A0000000050
:104F2000204C52203D2020253038580A0000000037
:104F3000205043203D2020253038580A0000000032
:104F400020505352203D20253038580A00000000E0
:104F50004653522F4641523A0A000000204346531E
:104F600052203D2020253038580A00002048465362
:104F700052203D2020253038580A00002044465356
:104F800052203D2020253038580A00002041465349
:104F900052203D2020253038580A0000204D4D4633
:104FA0004152203D20253038580A00002042464119
:104FB00052203D2020253038580A00004D69736387
:104FC0000A000000204C522F4558435F524554556B
:104FD000524E3D20253038580A0000003A747400C3
:104FE0005B486172644661756C745D0A0000000084
:104FF0005B4275734661756C745D0A005B55736145
:1050000067654661756C745D0A0000000000000071
:105010000000000001020304060708090020202008
:105020002020202020202828282828202020202058
:105030002020202020202020202020202088101028
:105040001010101010101010101010101004040484
:105050000404040404040410101010101010414142
:105060004141414101010101010101010101010130
:105070000101010101010101101010101010424244
:105080004242424202020202020202020202020200
:1050900002020202020202021010101020000000A0
:1050A0000000000000000000000000000000000000
:1050B00000000000000000000000000000000000F0
:1050C00000000000000000000000000000000000E0
:1050D00000000000000000000000000000000000D0
:1050E00000000000000000000000000000000000C0
:1050F00000000000000000000000000000000000B0
:10510000000000000000000000000000000000009F
:10511000000000000000000000000000000000008F
:10512000000000000000000000000000000000007F
:10513000000000000000000000000000000000006F
:10514000000000000000000000000000000000005F
:10515000000000000000000000000000000000004F
:10516000000000000000000000000000000000003F
:10517000000000000000000000000000000000002F
:105180000C000020232D302B2000686C4C0065663D
:105190006745464700303132333435363738394188
:1051A000424344454600303132333435363738399E
:0751B00061626364656600A3
:1051B800785634120024F4000C000020000000008F
:1051C800405100086051000820510008000000000C
:1051D80000000000000000000000000000000000C7
:1051E80000000000000000000000000000000000B7
:1051F80000000000000000000000000000000000A7
:105208000000000000000000000000000000000096
:1052180000000000000000000000000032547698F2
:040000050800018965
:00000001FF
